{
  "contractName": "Crowd",
  "abi": [
    {
      "inputs": [
        {
          "internalType": "uint256",
          "name": "targ",
          "type": "uint256"
        },
        {
          "internalType": "uint256",
          "name": "deadLine",
          "type": "uint256"
        }
      ],
      "stateMutability": "nonpayable",
      "type": "constructor"
    },
    {
      "inputs": [
        {
          "internalType": "address",
          "name": "",
          "type": "address"
        }
      ],
      "name": "contributers",
      "outputs": [
        {
          "internalType": "uint256",
          "name": "",
          "type": "uint256"
        }
      ],
      "stateMutability": "view",
      "type": "function",
      "constant": true
    },
    {
      "inputs": [],
      "name": "deadline",
      "outputs": [
        {
          "internalType": "uint256",
          "name": "",
          "type": "uint256"
        }
      ],
      "stateMutability": "view",
      "type": "function",
      "constant": true
    },
    {
      "inputs": [],
      "name": "manager",
      "outputs": [
        {
          "internalType": "address",
          "name": "",
          "type": "address"
        }
      ],
      "stateMutability": "view",
      "type": "function",
      "constant": true
    },
    {
      "inputs": [],
      "name": "minContribution",
      "outputs": [
        {
          "internalType": "uint256",
          "name": "",
          "type": "uint256"
        }
      ],
      "stateMutability": "view",
      "type": "function",
      "constant": true
    },
    {
      "inputs": [],
      "name": "noOfContributers",
      "outputs": [
        {
          "internalType": "uint256",
          "name": "",
          "type": "uint256"
        }
      ],
      "stateMutability": "view",
      "type": "function",
      "constant": true
    },
    {
      "inputs": [],
      "name": "numRequest",
      "outputs": [
        {
          "internalType": "uint256",
          "name": "",
          "type": "uint256"
        }
      ],
      "stateMutability": "view",
      "type": "function",
      "constant": true
    },
    {
      "inputs": [],
      "name": "raisedAmt",
      "outputs": [
        {
          "internalType": "uint256",
          "name": "",
          "type": "uint256"
        }
      ],
      "stateMutability": "view",
      "type": "function",
      "constant": true
    },
    {
      "inputs": [
        {
          "internalType": "uint256",
          "name": "",
          "type": "uint256"
        }
      ],
      "name": "request",
      "outputs": [
        {
          "internalType": "string",
          "name": "description",
          "type": "string"
        },
        {
          "internalType": "address payable",
          "name": "reciepent",
          "type": "address"
        },
        {
          "internalType": "uint256",
          "name": "value",
          "type": "uint256"
        },
        {
          "internalType": "bool",
          "name": "completed",
          "type": "bool"
        },
        {
          "internalType": "uint256",
          "name": "noOfVoters",
          "type": "uint256"
        }
      ],
      "stateMutability": "view",
      "type": "function",
      "constant": true
    },
    {
      "inputs": [],
      "name": "targate",
      "outputs": [
        {
          "internalType": "uint256",
          "name": "",
          "type": "uint256"
        }
      ],
      "stateMutability": "view",
      "type": "function",
      "constant": true
    },
    {
      "inputs": [],
      "name": "senEthe",
      "outputs": [],
      "stateMutability": "payable",
      "type": "function",
      "payable": true
    },
    {
      "inputs": [],
      "name": "getBalance",
      "outputs": [
        {
          "internalType": "uint256",
          "name": "",
          "type": "uint256"
        }
      ],
      "stateMutability": "view",
      "type": "function",
      "constant": true
    },
    {
      "inputs": [],
      "name": "refund",
      "outputs": [],
      "stateMutability": "payable",
      "type": "function",
      "payable": true
    },
    {
      "inputs": [
        {
          "internalType": "string",
          "name": "_discription",
          "type": "string"
        },
        {
          "internalType": "address payable",
          "name": "_reciepent",
          "type": "address"
        }
      ],
      "name": "createRequest",
      "outputs": [],
      "stateMutability": "nonpayable",
      "type": "function"
    },
    {
      "inputs": [
        {
          "internalType": "uint256",
          "name": "requestNo",
          "type": "uint256"
        }
      ],
      "name": "voteReq",
      "outputs": [],
      "stateMutability": "nonpayable",
      "type": "function"
    },
    {
      "inputs": [
        {
          "internalType": "uint256",
          "name": "requestNo",
          "type": "uint256"
        }
      ],
      "name": "makePayment",
      "outputs": [],
      "stateMutability": "nonpayable",
      "type": "function"
    }
  ],
  "bytecode": "0x60806040523480156200001157600080fd5b50604051620018e6380380620018e68339818101604052810190620000379190620000ff565b670de0b6b3a7640000826200004d919062000175565b6004819055508042620000619190620001d6565b60038190555033600160006101000a81548173ffffffffffffffffffffffffffffffffffffffff021916908373ffffffffffffffffffffffffffffffffffffffff160217905550671bc16d674ec80000600281905550505062000233565b600080fd5b6000819050919050565b620000d981620000c4565b8114620000e557600080fd5b50565b600081519050620000f981620000ce565b92915050565b60008060408385031215620001195762000118620000bf565b5b60006200012985828601620000e8565b92505060206200013c85828601620000e8565b9150509250929050565b7f4e487b7100000000000000000000000000000000000000000000000000000000600052601160045260246000fd5b60006200018282620000c4565b91506200018f83620000c4565b9250817fffffffffffffffffffffffffffffffffffffffffffffffffffffffffffffffff0483118215151615620001cb57620001ca62000146565b5b828202905092915050565b6000620001e382620000c4565b9150620001f083620000c4565b9250827fffffffffffffffffffffffffffffffffffffffffffffffffffffffffffffffff0382111562000228576200022762000146565b5b828201905092915050565b6116a380620002436000396000f3fe6080604052600436106100e85760003560e01c80635114cb521161008a578063b1b1643111610059578063b1b16431146102b1578063d845a4b3146102dc578063db604b041461031d578063eb474bfa14610327576100e8565b80635114cb521461022a578063590e1ae3146102535780637fecc11a1461025d578063aaffadf314610286576100e8565b8063325010df116100c6578063325010df1461016e57806334b66460146101975780633ece2b4f146101d4578063481c6a75146101ff576100e8565b806312065fe0146100ed57806324274ee91461011857806329dcb0cf14610143575b600080fd5b3480156100f957600080fd5b50610102610352565b60405161010f9190610d09565b60405180910390f35b34801561012457600080fd5b5061012d61035a565b60405161013a9190610d09565b60405180910390f35b34801561014f57600080fd5b50610158610360565b6040516101659190610d09565b60405180910390f35b34801561017a57600080fd5b5061019560048036038101906101909190610edc565b610366565b005b3480156101a357600080fd5b506101be60048036038101906101b99190610f76565b6104ba565b6040516101cb9190610d09565b60405180910390f35b3480156101e057600080fd5b506101e96104d2565b6040516101f69190610d09565b60405180910390f35b34801561020b57600080fd5b506102146104d8565b6040516102219190610fb2565b60405180910390f35b34801561023657600080fd5b50610251600480360381019061024c9190610ff9565b6104fe565b005b61025b6106f2565b005b34801561026957600080fd5b50610284600480360381019061027f9190610ff9565b610852565b005b34801561029257600080fd5b5061029b6109f7565b6040516102a89190610d09565b60405180910390f35b3480156102bd57600080fd5b506102c66109fd565b6040516102d39190610d09565b60405180910390f35b3480156102e857600080fd5b5061030360048036038101906102fe9190610ff9565b610a03565b6040516103149594939291906110d8565b60405180910390f35b610325610aee565b005b34801561033357600080fd5b5061033c610c47565b6040516103499190610d09565b60405180910390f35b600047905090565b60065481565b60035481565b600160009054906101000a900473ffffffffffffffffffffffffffffffffffffffff1673ffffffffffffffffffffffffffffffffffffffff163373ffffffffffffffffffffffffffffffffffffffff16146103f6576040517f08c379a00000000000000000000000000000000000000000000000000000000081526004016103ed906111a4565b60405180910390fd5b6000600760006008548152602001908152602001600020905060086000815480929190610422906111f3565b91905055508281600001908051906020019061043f929190610c4d565b50818160010160006101000a81548173ffffffffffffffffffffffffffffffffffffffff021916908373ffffffffffffffffffffffffffffffffffffffff160217905550600454816002018190555060008160030160006101000a81548160ff02191690831515021790555060008160040181905550505050565b60006020528060005260406000206000915090505481565b60055481565b600160009054906101000a900473ffffffffffffffffffffffffffffffffffffffff1681565b600160009054906101000a900473ffffffffffffffffffffffffffffffffffffffff1673ffffffffffffffffffffffffffffffffffffffff163373ffffffffffffffffffffffffffffffffffffffff161461058e576040517f08c379a0000000000000000000000000000000000000000000000000000000008152600401610585906111a4565b60405180910390fd5b600454600554101561059f57600080fd5b6000600760008381526020019081526020016000209050600015158160030160009054906101000a900460ff1615151461060e576040517f08c379a000000000000000000000000000000000000000000000000000000000815260040161060590611288565b60405180910390fd5b600260065461061d91906112d7565b816004015411610662576040517f08c379a000000000000000000000000000000000000000000000000000000000815260040161065990611354565b60405180910390fd5b8060010160009054906101000a900473ffffffffffffffffffffffffffffffffffffffff1673ffffffffffffffffffffffffffffffffffffffff166108fc82600201549081150290604051600060405180830381858888f193505050501580156106d0573d6000803e3d6000fd5b5060018160030160006101000a81548160ff0219169083151502179055505050565b6003544211610736576040517f08c379a000000000000000000000000000000000000000000000000000000000815260040161072d906113c0565b60405180910390fd5b60008060003373ffffffffffffffffffffffffffffffffffffffff1673ffffffffffffffffffffffffffffffffffffffff168152602001908152602001600020541161078157600080fd5b60003390508073ffffffffffffffffffffffffffffffffffffffff166108fc6000803373ffffffffffffffffffffffffffffffffffffffff1673ffffffffffffffffffffffffffffffffffffffff168152602001908152602001600020549081150290604051600060405180830381858888f1935050505015801561080a573d6000803e3d6000fd5b5060008060003373ffffffffffffffffffffffffffffffffffffffff1673ffffffffffffffffffffffffffffffffffffffff1681526020019081526020016000208190555050565b60008060003373ffffffffffffffffffffffffffffffffffffffff1673ffffffffffffffffffffffffffffffffffffffff16815260200190815260200160002054116108d3576040517f08c379a00000000000000000000000000000000000000000000000000000000081526004016108ca9061142c565b60405180910390fd5b6000600760008381526020019081526020016000209050600015158160050160003373ffffffffffffffffffffffffffffffffffffffff1673ffffffffffffffffffffffffffffffffffffffff16815260200190815260200160002060009054906101000a900460ff1615151461097f576040517f08c379a000000000000000000000000000000000000000000000000000000000815260040161097690611498565b60405180910390fd5b60018160050160003373ffffffffffffffffffffffffffffffffffffffff1673ffffffffffffffffffffffffffffffffffffffff16815260200190815260200160002060006101000a81548160ff0219169083151502179055508060040160008154809291906109ee906111f3565b91905055505050565b60025481565b60085481565b6007602052806000526040600020600091509050806000018054610a26906114e7565b80601f0160208091040260200160405190810160405280929190818152602001828054610a52906114e7565b8015610a9f5780601f10610a7457610100808354040283529160200191610a9f565b820191906000526020600020905b815481529060010190602001808311610a8257829003601f168201915b5050505050908060010160009054906101000a900473ffffffffffffffffffffffffffffffffffffffff16908060020154908060030160009054906101000a900460ff16908060040154905085565b6003544210610b32576040517f08c379a0000000000000000000000000000000000000000000000000000000008152600401610b2990611565565b60405180910390fd5b600254341015610b77576040517f08c379a0000000000000000000000000000000000000000000000000000000008152600401610b6e906115f7565b60405180910390fd5b60008060003373ffffffffffffffffffffffffffffffffffffffff1673ffffffffffffffffffffffffffffffffffffffff168152602001908152602001600020541415610bd75760066000815480929190610bd1906111f3565b91905055505b346000803373ffffffffffffffffffffffffffffffffffffffff1673ffffffffffffffffffffffffffffffffffffffff1681526020019081526020016000206000828254610c259190611617565b925050819055503460056000828254610c3e9190611617565b92505081905550565b60045481565b828054610c59906114e7565b90600052602060002090601f016020900481019282610c7b5760008555610cc2565b82601f10610c9457805160ff1916838001178555610cc2565b82800160010185558215610cc2579182015b82811115610cc1578251825591602001919060010190610ca6565b5b509050610ccf9190610cd3565b5090565b5b80821115610cec576000816000905550600101610cd4565b5090565b6000819050919050565b610d0381610cf0565b82525050565b6000602082019050610d1e6000830184610cfa565b92915050565b6000604051905090565b600080fd5b600080fd5b600080fd5b600080fd5b6000601f19601f8301169050919050565b7f4e487b7100000000000000000000000000000000000000000000000000000000600052604160045260246000fd5b610d8b82610d42565b810181811067ffffffffffffffff82111715610daa57610da9610d53565b5b80604052505050565b6000610dbd610d24565b9050610dc98282610d82565b919050565b600067ffffffffffffffff821115610de957610de8610d53565b5b610df282610d42565b9050602081019050919050565b82818337600083830152505050565b6000610e21610e1c84610dce565b610db3565b905082815260208101848484011115610e3d57610e3c610d3d565b5b610e48848285610dff565b509392505050565b600082601f830112610e6557610e64610d38565b5b8135610e75848260208601610e0e565b91505092915050565b600073ffffffffffffffffffffffffffffffffffffffff82169050919050565b6000610ea982610e7e565b9050919050565b610eb981610e9e565b8114610ec457600080fd5b50565b600081359050610ed681610eb0565b92915050565b60008060408385031215610ef357610ef2610d2e565b5b600083013567ffffffffffffffff811115610f1157610f10610d33565b5b610f1d85828601610e50565b9250506020610f2e85828601610ec7565b9150509250929050565b6000610f4382610e7e565b9050919050565b610f5381610f38565b8114610f5e57600080fd5b50565b600081359050610f7081610f4a565b92915050565b600060208284031215610f8c57610f8b610d2e565b5b6000610f9a84828501610f61565b91505092915050565b610fac81610f38565b82525050565b6000602082019050610fc76000830184610fa3565b92915050565b610fd681610cf0565b8114610fe157600080fd5b50565b600081359050610ff381610fcd565b92915050565b60006020828403121561100f5761100e610d2e565b5b600061101d84828501610fe4565b91505092915050565b600081519050919050565b600082825260208201905092915050565b60005b83811015611060578082015181840152602081019050611045565b8381111561106f576000848401525b50505050565b600061108082611026565b61108a8185611031565b935061109a818560208601611042565b6110a381610d42565b840191505092915050565b6110b781610e9e565b82525050565b60008115159050919050565b6110d2816110bd565b82525050565b600060a08201905081810360008301526110f28188611075565b905061110160208301876110ae565b61110e6040830186610cfa565b61111b60608301856110c9565b6111286080830184610cfa565b9695505050505050565b7f4f6e6c79206d616e616765722063616e2063616c6c20746869732066756e637460008201527f696f6e0000000000000000000000000000000000000000000000000000000000602082015250565b600061118e602383611031565b915061119982611132565b604082019050919050565b600060208201905081810360008301526111bd81611181565b9050919050565b7f4e487b7100000000000000000000000000000000000000000000000000000000600052601160045260246000fd5b60006111fe82610cf0565b91507fffffffffffffffffffffffffffffffffffffffffffffffffffffffffffffffff821415611231576112306111c4565b5b600182019050919050565b7f546865207265717565737420686173206265656e20636f6d706c657465642e00600082015250565b6000611272601f83611031565b915061127d8261123c565b602082019050919050565b600060208201905081810360008301526112a181611265565b9050919050565b7f4e487b7100000000000000000000000000000000000000000000000000000000600052601260045260246000fd5b60006112e282610cf0565b91506112ed83610cf0565b9250826112fd576112fc6112a8565b5b828204905092915050565b7f6d656a6f7269747920646f6573206e6f74206d61746368000000000000000000600082015250565b600061133e601783611031565b915061134982611308565b602082019050919050565b6000602082019050818103600083015261136d81611331565b9050919050565b7f796f7520617265206e6f7420656c696769626c6520666f7220726566756e6400600082015250565b60006113aa601f83611031565b91506113b582611374565b602082019050919050565b600060208201905081810360008301526113d98161139d565b9050919050565b7f596f75206d75737420626520636f6e7472696275746572000000000000000000600082015250565b6000611416601783611031565b9150611421826113e0565b602082019050919050565b6000602082019050818103600083015261144581611409565b9050919050565b7f796f7520616c7261647920766f74746564000000000000000000000000000000600082015250565b6000611482601183611031565b915061148d8261144c565b602082019050919050565b600060208201905081810360008301526114b181611475565b9050919050565b7f4e487b7100000000000000000000000000000000000000000000000000000000600052602260045260246000fd5b600060028204905060018216806114ff57607f821691505b60208210811415611513576115126114b8565b5b50919050565b7f646561646c696e65206973207061737365640000000000000000000000000000600082015250565b600061154f601283611031565b915061155a82611519565b602082019050919050565b6000602082019050818103600083015261157e81611542565b9050919050565b7f204d696e696d756d20636f6e747269627574696f6e206973203220657468657260008201527f20616e6420796f757220636f6e6e747275627574696f6e206e6f74206d657400602082015250565b60006115e1603f83611031565b91506115ec82611585565b604082019050919050565b60006020820190508181036000830152611610816115d4565b9050919050565b600061162282610cf0565b915061162d83610cf0565b9250827fffffffffffffffffffffffffffffffffffffffffffffffffffffffffffffffff03821115611662576116616111c4565b5b82820190509291505056fea2646970667358221220084dade190b50a6f20eedb311bc8af711f417163fe177d5b42dbad42f7667ead64736f6c634300080b0033",
  "immutableReferences": {},
  "source": "// SPDX-License-Identifier: MIT\r\n\r\npragma solidity>=0.5.0<0.9.0;\r\n\r\ncontract Crowd\r\n{\r\n    mapping(address=>uint) public contributers;      //getting information of contributers\r\n    address public manager;\r\n    uint public minContribution;\r\n    uint public deadline;\r\n    uint public targate ;\r\n    uint public raisedAmt;\r\n    uint public noOfContributers;\r\n\r\n    //  ---------------------------  Creating Struct for request for Funding to transfer money-------------------------------\r\n\r\n    struct Request{          // its for request to transfer to manager\r\n\r\n    string description;           //why money transfer to manager acc\r\n    address payable reciepent;     // who recive the money from manager \r\n    uint value;                    // ammount\r\n    bool completed;      \r\n    uint noOfVoters;                // how many voters\r\n    mapping(address=>bool) votters ;    // consiste votters address \r\n     \r\n }\r\n  //-------------------------------------------------------------------------------------------------------------------------------\r\n    mapping(uint=>Request) public request;      //its for how many request are there for funding..\r\n    uint public numRequest;\r\n\r\n\r\n//-----constructor for manager,set targets ,deadline --------------\r\n    constructor(uint targ ,uint deadLine){\r\n\r\n        targate=targ*1000000000000000000;\r\n        deadline = block.timestamp+deadLine;       // addding time in seconds.\r\n        manager =msg.sender;\r\n        minContribution = 2 ether;                //minimum contribution is set \r\n\r\n\r\n    }\r\n\r\n\r\n//--------- senEthe function for contributers to  sending ether/wei  -----------\r\n\r\n    function senEthe() public payable{\r\n        require(block.timestamp < deadline ,\"deadline is passed\");\r\n        require(msg.value>= minContribution ,\" Minimum contribution is 2 ether and your conntrubution not met\");\r\n\r\n        if(contributers[msg.sender]==0)   // cheack the first time contributer  or repeate contributor\r\n        {\r\n            noOfContributers++;\r\n        }\r\n\r\n        contributers[msg.sender] += msg.value;   // increse only the value or ammount \r\n        raisedAmt+=msg.value;                  // increase the amount in raisedAmt \r\n    }\r\n         \r\n\r\n  //-------------Create function for cheak a balance----------------  \r\n\r\n     function getBalance() public view returns(uint){\r\n            return address(this).balance;                       // getting total balance \r\n     }    \r\n\r\n//   -------------------create Refund Function------------\r\n     function refund() public payable{\r\n\r\n         require(block.timestamp>deadline,\"you are not eligible for refund\");   // cheak the deadline is crossed\r\n         require(contributers[msg.sender]>0);                                  // cheak the contributer contribute or not \r\n          \r\n         address payable user = payable (msg.sender);              // we can transfer the money in this account\r\n\r\n         user.transfer(contributers[msg.sender]);              // we can refund the amount which is contributed\r\n         contributers[msg.sender]=0;                          // and set the 0 \r\n\r\n     }\r\n\r\n     // --------------create modifier------\r\n\r\n     modifier onlyManager(){                                                          // modifire is used to change the behavier of function .\r\n         require(msg.sender == manager,\"Only manager can call this function\");         // cheak the manager address      \r\n         _;\r\n     }\r\n \r\n    // -----------------Request For Fund-------------------\r\n     function createRequest(string memory _discription ,address payable _reciepent ) public  onlyManager\r\n     {\r\n        Request storage newRequest = request[numRequest];                              // new request stored.\r\n        numRequest++;    \r\n\r\n        newRequest.description=_discription;\r\n        newRequest.reciepent=_reciepent;\r\n        newRequest.value=targate;\r\n        newRequest.completed=false;\r\n        newRequest.noOfVoters=0;\r\n\r\n     }\r\n\r\n\r\n     //-----------------------------voting function----------\r\n\r\n     function voteReq(uint requestNo)public\r\n     {\r\n        require(contributers[msg.sender]>0,\"You must be contributer\");\r\n        Request storage thisRequest = request[requestNo];\r\n        require(thisRequest.votters[msg.sender]==false,\"you alrady votted\");               // cheak votted or not\r\n        thisRequest.votters[msg.sender]=true; \r\n        thisRequest.noOfVoters++;\r\n        \r\n     } \r\n\r\n//   ---------------------Payment Function -------------------------------\r\n     function makePayment(uint requestNo)public onlyManager{\r\n\r\n         require(raisedAmt>=targate);\r\n         Request storage thisRequest = request[requestNo];\r\n         require(thisRequest.completed==false,\"The request has been completed.\");       // cheak request is already complited or not if not then move to next line\r\n         require(thisRequest.noOfVoters > noOfContributers/2,\"mejority does not match\");   // cheak  Voting is above 50%  then move to next line\r\n         thisRequest.reciepent.transfer(thisRequest.value);                               // transfer the amount in recipent account\r\n         thisRequest.completed=true;                                        // compete the Request .\r\n         \r\n\r\n     }\r\n\r\n}",
  "sourcePath": "D:\\Ethereum\\Projects\\CrowdFunding\\contracts\\Crowd.sol",
  "compiler": {
    "name": "solc",
    "version": "0.8.11+commit.d7f03943.Emscripten.clang"
  },
  "schemaVersion": "3.4.5",
  "updatedAt": "2022-02-22T20:31:29.846Z",
  "networkType": "ethereum",
  "devdoc": {
    "kind": "dev",
    "methods": {},
    "version": 1
  },
  "userdoc": {
    "kind": "user",
    "methods": {},
    "version": 1
  }
}