{
  "contractName": "Test",
  "abi": [
    {
      "inputs": [],
      "name": "ammount",
      "outputs": [
        {
          "internalType": "uint256",
          "name": "",
          "type": "uint256"
        }
      ],
      "stateMutability": "view",
      "type": "function"
    },
    {
      "inputs": [],
      "name": "reciver",
      "outputs": [
        {
          "internalType": "address",
          "name": "",
          "type": "address"
        }
      ],
      "stateMutability": "view",
      "type": "function"
    },
    {
      "inputs": [
        {
          "internalType": "address payable",
          "name": "rec",
          "type": "address"
        },
        {
          "internalType": "uint256",
          "name": "amt",
          "type": "uint256"
        }
      ],
      "name": "TransferMoney",
      "outputs": [],
      "stateMutability": "payable",
      "type": "function"
    }
  ],
  "bytecode": "0x608060405234801561001057600080fd5b50610398806100206000396000f3fe6080604052600436106100345760003560e01c80635b889ab8146100395780638e07a0d614610064578063a4bbfb7414610080575b600080fd5b34801561004557600080fd5b5061004e6100ab565b60405161005b91906101b3565b60405180910390f35b61007e6004803603810190610079919061025d565b6100b1565b005b34801561008c57600080fd5b50610095610174565b6040516100a291906102be565b60405180910390f35b60005481565b670de0b6b3a7640000816100c59190610308565b5081600160006101000a81548173ffffffffffffffffffffffffffffffffffffffff021916908373ffffffffffffffffffffffffffffffffffffffff160217905550600160009054906101000a900473ffffffffffffffffffffffffffffffffffffffff1673ffffffffffffffffffffffffffffffffffffffff166108fc349081150290604051600060405180830381858888f1935050505015801561016f573d6000803e3d6000fd5b505050565b600160009054906101000a900473ffffffffffffffffffffffffffffffffffffffff1681565b6000819050919050565b6101ad8161019a565b82525050565b60006020820190506101c860008301846101a4565b92915050565b600080fd5b600073ffffffffffffffffffffffffffffffffffffffff82169050919050565b60006101fe826101d3565b9050919050565b61020e816101f3565b811461021957600080fd5b50565b60008135905061022b81610205565b92915050565b61023a8161019a565b811461024557600080fd5b50565b60008135905061025781610231565b92915050565b60008060408385031215610274576102736101ce565b5b60006102828582860161021c565b925050602061029385828601610248565b9150509250929050565b60006102a8826101d3565b9050919050565b6102b88161029d565b82525050565b60006020820190506102d360008301846102af565b92915050565b7f4e487b7100000000000000000000000000000000000000000000000000000000600052601160045260246000fd5b60006103138261019a565b915061031e8361019a565b9250817fffffffffffffffffffffffffffffffffffffffffffffffffffffffffffffffff0483118215151615610357576103566102d9565b5b82820290509291505056fea2646970667358221220bb0473cb01db0883e981268576a78745140854a14d3c9a1bbf8b7925dc3ced1064736f6c634300080b0033",
  "immutableReferences": {},
  "source": "// SPDX-License-Identifier: MIT\r\n\r\npragma solidity >=0.5.0 <0.9.0;\r\n\r\ncontract Test {\r\n \r\n   uint public ammount;\r\n   address public  reciver;\r\n//    address public sender = msg.address;\r\n\r\n   function TransferMoney(address payable rec ,uint amt) external payable {\r\n   \r\n     \r\n        msg.value ==amt*1000000000000000000;\r\n        reciver = rec;\r\n        payable(reciver).transfer(msg.value);\r\n   }\r\n}",
  "sourcePath": "D:\\Ethereum\\Projects\\CrowdFunding\\contracts\\Crowd.sol",
  "compiler": {
    "name": "solc",
    "version": "0.8.11+commit.d7f03943.Emscripten.clang"
  },
  "schemaVersion": "3.4.5",
  "updatedAt": "2022-02-26T20:51:06.632Z",
  "devdoc": {
    "kind": "dev",
    "methods": {},
    "version": 1
  },
  "userdoc": {
    "kind": "user",
    "methods": {},
    "version": 1
  }
}