{
  "contractName": "Donate",
  "abi": [
    {
      "inputs": [
        {
          "internalType": "uint256",
          "name": "",
          "type": "uint256"
        }
      ],
      "name": "contributers",
      "outputs": [
        {
          "internalType": "address",
          "name": "",
          "type": "address"
        }
      ],
      "stateMutability": "view",
      "type": "function",
      "constant": true
    },
    {
      "inputs": [],
      "name": "noOfContributers",
      "outputs": [
        {
          "internalType": "uint256",
          "name": "",
          "type": "uint256"
        }
      ],
      "stateMutability": "view",
      "type": "function",
      "constant": true
    },
    {
      "inputs": [],
      "name": "reciver",
      "outputs": [
        {
          "internalType": "address",
          "name": "",
          "type": "address"
        }
      ],
      "stateMutability": "view",
      "type": "function",
      "constant": true
    },
    {
      "inputs": [
        {
          "internalType": "address payable",
          "name": "rec",
          "type": "address"
        },
        {
          "internalType": "uint256",
          "name": "amt",
          "type": "uint256"
        }
      ],
      "name": "TransferMoney",
      "outputs": [],
      "stateMutability": "nonpayable",
      "type": "function"
    },
    {
      "inputs": [],
      "name": "DonateAmt",
      "outputs": [],
      "stateMutability": "payable",
      "type": "function",
      "payable": true
    }
  ],
  "bytecode": "0x608060405234801561001057600080fd5b5061044a806100206000396000f3fe60806040526004361061004a5760003560e01c80631fbed5791461004f57806324274ee91461008c5780638216b70d146100b75780638e07a0d6146100c1578063a4bbfb74146100ea575b600080fd5b34801561005b57600080fd5b50610076600480360381019061007191906102e3565b610115565b6040516100839190610351565b60405180910390f35b34801561009857600080fd5b506100a1610148565b6040516100ae919061037b565b60405180910390f35b6100bf61014e565b005b3480156100cd57600080fd5b506100e860048036038101906100e391906103d4565b6101a3565b005b3480156100f657600080fd5b506100ff610282565b60405161010c9190610351565b60405180910390f35b60016020528060005260406000206000915054906101000a900473ffffffffffffffffffffffffffffffffffffffff1681565b60005481565b33600160008054815260200190815260200160002060006101000a81548173ffffffffffffffffffffffffffffffffffffffff021916908373ffffffffffffffffffffffffffffffffffffffff160217905550565b81600260006101000a81548173ffffffffffffffffffffffffffffffffffffffff021916908373ffffffffffffffffffffffffffffffffffffffff1602179055508173ffffffffffffffffffffffffffffffffffffffff166108fc829081150290604051600060405180830381858888f1935050505015801561022a573d6000803e3d6000fd5b5033600160008054815260200190815260200160002060006101000a81548173ffffffffffffffffffffffffffffffffffffffff021916908373ffffffffffffffffffffffffffffffffffffffff1602179055505050565b600260009054906101000a900473ffffffffffffffffffffffffffffffffffffffff1681565b600080fd5b6000819050919050565b6102c0816102ad565b81146102cb57600080fd5b50565b6000813590506102dd816102b7565b92915050565b6000602082840312156102f9576102f86102a8565b5b6000610307848285016102ce565b91505092915050565b600073ffffffffffffffffffffffffffffffffffffffff82169050919050565b600061033b82610310565b9050919050565b61034b81610330565b82525050565b60006020820190506103666000830184610342565b92915050565b610375816102ad565b82525050565b6000602082019050610390600083018461036c565b92915050565b60006103a182610310565b9050919050565b6103b181610396565b81146103bc57600080fd5b50565b6000813590506103ce816103a8565b92915050565b600080604083850312156103eb576103ea6102a8565b5b60006103f9858286016103bf565b925050602061040a858286016102ce565b915050925092905056fea26469706673582212201ad46f2f50ff0dd3fc11d2ff82102041a87c05d56a2853cb4f5248c329a5b09064736f6c634300080b0033",
  "immutableReferences": {},
  "source": "// SPDX-License-Identifier: MIT\r\n\r\npragma solidity >=0.5.0 <0.9.0;\r\n\r\ncontract Donate {\r\n \r\n    uint public noOfContributers;\r\n\r\n    mapping(uint=>address) public contributers;\r\n//    uint public ammount;\r\n   address public  reciver;\r\n//    address public sender = msg.address;\r\n\r\n   function TransferMoney(address payable rec,uint amt) external {\r\n        reciver = rec;\r\n        rec.transfer(amt);\r\n        contributers[noOfContributers]=msg.sender;\r\n        \r\n\r\n\r\n   }\r\n     function DonateAmt() external payable{\r\n        contributers[noOfContributers]=msg.sender;\r\n    }\r\n   \r\n}",
  "sourcePath": "D:\\Ethereum\\Projects\\CrowdFunding\\contracts\\Donate.sol",
  "compiler": {
    "name": "solc",
    "version": "0.8.11+commit.d7f03943.Emscripten.clang"
  },
  "schemaVersion": "3.4.5",
  "updatedAt": "2022-02-27T22:46:30.912Z",
  "networkType": "ethereum",
  "devdoc": {
    "kind": "dev",
    "methods": {},
    "version": 1
  },
  "userdoc": {
    "kind": "user",
    "methods": {},
    "version": 1
  }
}